:020000040000FA
:0600000055EF01F01200B3
:020006001200E6
:08000800DACFE4FFE2CFDAFFDA
:10001000E65200016A2B6B2B6B0502E12AD017D048
:10002000020E6B5D02E125D012D0030E6B5D02E182
:1000300020D00DD0040EE76E6B19E8AE02D0E73485
:1000400002D0E7506B5D03E314D000016B6B040E2C
:100050000001E76E6A19E8AE02D0E73402D0E7503B
:100060006A5D02E36C2B6A6B9E90DC0ECE6E0B0E0B
:10007000CF6EE552E5CFDAFF1100946A826A956A85
:10008000836A350ECD6E9D80F28EF28CDC0ECE6EC4
:100090000B0ECF6E090E0001E76E6C19E8AE02D0B0
:1000A0006C3503D0E750D8806C5533E36C5102E1D6
:1000B00031D02DD06C0502E12DD029D0020E6C5D1F
:1000C00002E128D024D0030E6C5D02E123D01FD0C2
:1000D000040E6C5D02E11ED01AD0050E6C5D02E1CB
:1000E00019D015D0060E6C5D02E114D010D0070EA9
:1000F0006C5D02E10FD00BD0080E6C5D02E10AD0FE
:1001000006D0090E6C5D03E105D000016C6B0001A7
:060110006C2BC0D71200A9
:0A0116000100C60200006A000000AC
:0401200007000000D4
:0C01240083808382838483868388838A9F
:10013000839C120083908382838483968398839A1E
:10014000839C120083808382839483868388839A2E
:10015000838C120083808382839483868388839A2E
:10016000838C120083908382838483968398838A0E
:10017000838C120083808392838483868398838A0E
:10018000838C120083908392838483868388838AFE
:10019000838C120083808382838483968398839ADE
:1001A000839C120083808382838483868388838AEE
:1001B000838C120083808382838483968398838ACE
:1001C000838C1200828082928294829812008290A4
:1001D0008282829482981200829082928284829893
:0C01E000120082908292829482881200A9
:0401EC00160EF66E87
:1001F000010EF76E000EF86E00010900F550656FF4
:100200000900F550666F03E1656701D03DD0090034
:10021000F550606F0900F550616F0900F550626F8D
:1002200009000900F550E96E0900F550EA6E090071
:1002300009000900F550636F0900F550646F09006B
:100240000900F6CF67F0F7CF68F0F8CF69F060C02B
:10025000F6FF61C0F7FF62C0F8FF0001635302E1DF
:10026000645307E00900F550EE6E6307F8E2640797
:10027000F9D767C0F6FF68C0F7FF69C0F8FF000153
:0A0280006507000E665BBFD7120091
:06028A00000EF36E00EE11
:1002900000F0080E01D81200EA6002D0EE6AFCD726
:0A02A000F350E9601200EE6AFCD78B
:0602AA0013EE00F023EE4C
:1002B00000F0F86A019CF6EC00F003EC00F03DEC75
:0602C00000F0FBD7120064
:0702C6000000000000000031
:020000040030CA
:010001000CF2
:010002000EEF
:010003001EDE
:010005008179
:010006008178
:00000001FF
