:020000040000FA
:060000003CEF01F01200CC
:020006000000F8
:08000800DACFE4FFE2CFDAFFDA
:10001000E9CFE4FFEACFE4FFF6CFE4FFF7CFE4FF58
:10002000F5CFE4FFF3CFE4FFF4CFE4FFFACFE4FF32
:1000300000EE00F0020EE80403E3EECFE4FFFBD78E
:1000400000EE04F0000EE80403E3EECFE4FFFBD77C
:10005000E652F292960EE66E15EC01F0E5528396AA
:100060008388838A839083828384640EE66E15EC92
:1000700001F0E552838C839E2C0EE66E15EC01F0A8
:10008000E552E55200EE03F0000EE80403E3E5CF8D
:10009000EDFFFBD700EE01F0020EE80403E3E5CF2D
:1000A000EDFFFBD7E5CFFAFFE5CFF4FFE5CFF3FF98
:1000B000E5CFF5FFE5CFF7FFE5CFF6FFE5CFEAFFA8
:1000C000E5CFE9FFE5CFDAFF110083868388839AC5
:1000D000839083828384839C838E1200838683989B
:1000E000838A839083828384839C838E1200839689
:1000F0008388838A838083828394839C838E120087
:1001000083968388838A838083928384839C838E6F
:10011000120083968388838A839083828384839C5E
:10012000838E120083968388838A8390838283845C
:10013000839C838E1200956A9380F288F18CF28EF4
:10014000C4DFF40EE66E15EC01F0E552C7DFC80E11
:10015000E66E15EC01F0E552DCDF640EE66E15ECA0
:1001600001F0E552C4DF900EE66E15EC01F0E552A9
:10017000C7DFC80EE66E15EC01F0E552CADF640E6B
:0C018000E66E15EC01F0E552DBD7120032
:04018C00060EF66EF7
:10019000000EF76E000EF86E00010900F550656F55
:1001A0000900F550666F03E1656701D03DD0090095
:1001B000F550606F0900F550616F0900F550626FEE
:1001C00009000900F550E96E0900F550EA6E0900D2
:1001D00009000900F550636F0900F550646F0900CC
:1001E0000900F6CF67F0F7CF68F0F8CF69F060C08C
:1001F000F6FF61C0F7FF62C0F8FF0001635302E140
:10020000645307E00900F550EE6E6307F8E26407F7
:10021000F9D767C0F6FF68C0F7FF69C0F8FF0001B3
:0A0220006507000E665BBFD71200F1
:06022A00FF0EE350036E1D
:10023000EF0E01D0F30EE76EE72E1CEF01F00C0E6F
:10024000026EE76AE72E22EF01F0022E21EF01F0A5
:08025000032E1AEF01F0120069
:08025800000EF36E00EE00F051
:10026000080E01D81200EA6002D0EE6AFCD7F35003
:08027000E9601200EE6AFCD700
:0802780013EE00F023EE00F08C
:10028000F86A019CC6EC00F04AEC01F09BEC00F02F
:04029000FBD7120086
:02029400120056
:020000040030CA
:0100000000FF
:010001000CF2
:010002000EEF
:010003001EDE
:010005008179
:010006008178
:00000001FF
