:020000040000FA
:06000000B9EF00F0120050
:020006000000F8
:08000800D9CFE6FFE1CFD9FFDB
:10001000020EE126DE6ADD6ADECF02F0DDCF03F0FC
:10002000D890035004E6900E025C010E035805E2DE
:10003000DF2A010E01E3DB2AEFD7020EE15C02E2C8
:10004000E16AE552E16EE552E7CFD9FF1200C00E3A
:10005000816E200E826ED8DF826A1200F90E816EE8
:10006000100E826ED1DF826A1200A40E816E080E1D
:10007000826ECADF826A1200B00E816E040E826E3A
:10008000C3DF826A1200990E816E020E826EBCDF9F
:10009000826A1200920E816E010E826EB5DF826A54
:1000A0001200936A946AD3DFD9DFDFDFE5DFEBDF8D
:0400B0004AEF00F023
:0C00B400060EF66E000EF76E000EF86EE1
:1000C00000010900F550856F0900F550866F03E1C6
:1000D000856701D03DD00900F550806F0900F550CB
:1000E000816F0900F550826F09000900F550E96E33
:1000F0000900F550EA6E090009000900F550836F08
:100100000900F550846F09000900F6CF87F0F7CF9A
:1001100088F0F8CF89F080C0F6FF81C0F7FF82C079
:10012000F8FF0001835302E1845307E00900F55012
:10013000EE6E8307F8E28407F9D787C0F6FF88C020
:10014000F7FF89C0F8FF00018507000E865BBFD767
:0201500012009B
:0E015200000EF36E00EE00F0060E01D8120053
:10016000EA6002D0EE6AFCD7F350E9601200EE6A52
:02017000FCD7BA
:0E01720015EE00F025EE00F0F86A019C5AEC44
:0E01800000F0C7EC00F051EC00F0FBD71200CD
:02018E0012005D
:00000001FF
