:020000040000FA
:0600000064EF02F01200A3
:020006000000F8
:080008008D908D82010EE66E61
:1000100072EC02F0E5528D9212008D808D82010EFD
:10002000E66E72EC02F0E5528D921200D9CFE6FF37
:10003000E1CFD9FFFE0EDB508C6EE6DFE552E7CF55
:10004000D9FF1200D9CFE6FFE1CFD9FFFE0EDB507A
:100050008C6EE3DFE552E7CFD9FF12008C6A030E06
:10006000E66E2DEC02F0E552300EE66EDFDFE55273
:10007000080EE66E44EC02F0E552300EE66ED6DF76
:10008000E552010EE66E44EC02F0E552300EE66EEB
:10009000CDDFE552010EE66E2DEC02F0E552380E92
:1000A000E66EC4DFE552010EE66E2DEC02F0E5527D
:1000B000060EE66EBBDFE552010EE66E2DEC02F099
:1000C000E5520C0EE66EB2DFE552010EE66E2DEC47
:1000D00002F0E55212008D94C1DFC30EE66EA6DF7A
:1000E000E552010EE66E2DEC02F0E552780EE66E5A
:1000F000A9DFE552010EE66E2DEC02F0E55212008A
:100100008D94ACDF830EE66E91DFE552010EE66E54
:100110002DEC02F0E552440EE66E94DFE552010E3E
:10012000E66E2DEC02F0E552690EE66E8BDFE552CD
:10013000010EE66E2DEC02F0E552670EE66E82DFF0
:10014000E552010EE66E2DEC02F0E552690EE66E08
:1001500079DFE552010EE66E2DEC02F0E552740EE9
:10016000E66E70DFE552010EE66E2DEC02F0E55210
:10017000650EE66E67DFE552010EE66E2DEC02F0CD
:10018000E55212008D946ADF010EE66E2DEC02F04E
:10019000E552310EE66E56DFE552010EE66E2DECAD
:1001A00002F0E55212008D9459DF010EE66E2DEC3F
:1001B00002F0E552320EE66E45DFE552010EE66EC4
:1001C0002DEC02F0E55212008D9448DF010EE66E30
:1001D0002DEC02F0E552330EE66E34DFE552010EEF
:1001E000E66E2DEC02F0E55212008D9437DF010E21
:1001F000E66E2DEC02F0E552340EE66E23DFE5529A
:10020000010EE66E2DEC02F0E55212008D9426DF11
:10021000010EE66E2DEC02F0E552350EE66E12DFB1
:10022000E552010EE66E2DEC02F0E55212008D94BF
:1002300015DF010EE66E2DEC02F0E552360EE66E8D
:1002400001DFE552010EE66E2DEC02F0E5521200E0
:100250008D9404DF010EE66E2DEC02F0E552370EB0
:10026000E66EF0DEE552010EE66E2DEC02F0E55290
:1002700012008D94F3DE010EE66E2DEC02F0E552D5
:10028000380EE66EDFDEE552010EE66E2DEC02F072
:10029000E55212008D94E2DE010EE66E2DEC02F0C6
:1002A000E552390EE66ECEDEE552010EE66E2DEC1D
:1002B00002F0E55212008D94D1DE010EE66E2DECB7
:1002C00002F0E552300EE66EBDDEE552010EE66E3E
:1002D0002DEC02F0E55212008D94C0DE010EE66EA8
:1002E000A5DEE552010EE66E2DEC02F0E55208DFC8
:1002F000C30EE66E9BDEE55212008D94AFDE100E4B
:10030000E66E94DEE552010EE66E2DEC02F0E5524B
:10031000200EE66E97DEE552010EE66E2DEC02F041
:10032000E5521200EADF100EE66E80DEE5521200A2
:1003300081808192819481AE02D0CEDF0AD081ACDF
:1003400002D020DF06D081AA02D04FDF02D081B8D0
:100350007FDF120081908182819481AE02D0ABDF79
:100360000AD081AC02D01FDF06D081AA02D04EDFB6
:1003700002D081B87EDF120081908192818481AEAB
:1003800002D0D0DF0AD081AC02D01EDF06D081AA15
:1003900002D04DDF02D081B87DDF1200926AF00EEC
:1003A000936E946A956A966AABDEC30EE66E3EDE85
:0C03B000E552BEDFCFDFE0DFFCD712001B
:0403BC00060EF66EC5
:1003C000000EF76E000EF86E00010900F550656F23
:1003D0000900F550666F03E1656701D03DD0090063
:1003E000F550606F0900F550616F0900F550626FBC
:1003F00009000900F550E96E0900F550EA6E0900A0
:1004000009000900F550636F0900F550646F090099
:100410000900F6CF67F0F7CF68F0F8CF69F060C059
:10042000F6FF61C0F7FF62C0F8FF0001635302E10D
:10043000645307E00900F550EE6E6307F8E26407C5
:10044000F9D767C0F6FF68C0F7FF69C0F8FF000181
:0A0450006507000E665BBFD71200BF
:06045A00FF0EE350036EEB
:10046000EF0E01D0F30EE76EE72E34EF02F00C0E24
:10047000026EE76AE72E3AEF02F0022E39EF02F041
:08048000032E32EF02F012001E
:08048800FF0EE350036E480E65
:1004900001D04C0EE76EE72EFED7E76AE72EFED7B7
:0804A000032EF7D70000120043
:0804A800000EF36E00EE00F0FF
:1004B000080E01D81200EA6002D0EE6AFCD7F350B1
:0804C000E9601200EE6AFCD7AE
:0804C80013EE00F023EE00F03A
:1004D000F86A019CDEEC01F07DEC02F0CEEC01F05C
:0404E000FBD7120034
:0C04E400FF0EE350E84E1200000000D0B4
:0A04F00000D000D0E82EFAD7120069
:0204FA001200EE
:020000040030CA
:010001000CF2
:0100020018E5
:010003001EDE
:0100050001F9
:010006008178
:00000001FF
