:020000040000FA
:06000000D6EF02F0120031
:020006000000F8
:080008008D908D82010EE66E61
:10001000E4EC02F0E5528D9212008D808D82010E8B
:10002000E66EE4EC02F0E5528D921200D9CFE6FFC5
:10003000E1CFD9FFFE0EDB508C6EE6DFE552E7CF55
:10004000D9FF1200D9CFE6FFE1CFD9FFFE0EDB507A
:100050008C6EE3DFE552E7CFD9FF12008C6A030E06
:10006000E66E9FEC02F0E552300EE66EDFDFE55201
:10007000080EE66EB6EC02F0E552300EE66ED6DF04
:10008000E552010EE66EB6EC02F0E552300EE66E79
:10009000CDDFE552010EE66E9FEC02F0E552380E20
:1000A000E66EC4DFE552010EE66E9FEC02F0E5520B
:1000B000060EE66EBBDFE552010EE66E9FEC02F027
:1000C000E5520C0EE66EB2DFE552010EE66E9FECD5
:1000D00002F0E55212008D94C1DFC30EE66EA6DF7A
:1000E000E552010EE66E9FEC02F0E552780EE66EE8
:1000F000A9DFE552010EE66E9FEC02F0E552120018
:100100008D94ACDFC30EE66E91DFE552010EE66E14
:100110009FEC02F0E552310EE66E94DFE552010EDF
:10012000E66E9FEC02F0E55212008D9497DFC30E4D
:10013000E66E7CDFE552010EE66E9FEC02F0E552C2
:10014000320EE66E7FDFE552010EE66E9FEC02F0A6
:10015000E55212008D9482DFC30EE66E67DFE55232
:10016000010EE66E9FEC02F0E552330EE66E6ADF9A
:10017000E552010EE66E9FEC02F0E55212008D94FE
:100180006DDFC30EE66E52DFE552010EE66E9FECA8
:1001900002F0E552340EE66E55DFE552010EE66ED2
:1001A0009FEC02F0E55212008D9458DFC30EE66E0C
:1001B0003DDFE552010EE66E9FEC02F0E552350E92
:1001C000E66E40DFE552010EE66E9FEC02F0E5526E
:1001D00012008D9443DFC30EE66E28DFE552010E58
:1001E000E66E9FEC02F0E552360EE66E2BDFE5522E
:1001F000010EE66E9FEC02F0E55212008D942EDFA8
:10020000C30EE66E13DFE552010EE66E9FEC02F0C0
:10021000E552370EE66E16DFE552010EE66E9FECF4
:1002200002F0E55212008D9419DFC30EE66EFEDE79
:10023000E552010EE66E9FEC02F0E552380EE66ED6
:1002400001DFE552010EE66E9FEC02F0E55212006E
:100250008D9404DFC30EE66EE9DEE552010EE66E14
:100260009FEC02F0E552390EE66EECDEE552010E2F
:10027000E66E9FEC02F0E55212008D94EFDEC30EA5
:10028000E66ED4DEE552010EE66E9FEC02F0E5521A
:10029000300EE66ED7DEE552010EE66E9FEC02F000
:1002A000E55212008D94DADE010EE66EBFDEE552F5
:1002B000010EE66E9FEC02F0E55212008D94CEDE48
:1002C000180EE66EB3DEE552010EE66E9FEC02F00C
:1002D000E552200EE66EB6DEE552010EE66E9FECAC
:1002E00002F0E5521200926A9368946A956A966ADF
:1002F0008D94B4DE830EE66E99DEE552010EE66E55
:100300009FEC02F0E552440EE66E9CDEE552010ED3
:10031000E66E9FEC02F0E552690EE66E93DEE55262
:10032000010EE66E9FEC02F0E552670EE66E8ADE85
:10033000E552010EE66E9FEC02F0E552690EE66EA4
:1003400081DEE552010EE66E9FEC02F0E552740E7E
:10035000E66E78DEE552010EE66E9FEC02F0E552A5
:10036000650EE66E6FDEE552010EE66E9FEC02F062
:10037000E5526EDF8150010B310807E18150100B0F
:1003800001E0010E310801E163DF8150020B01E061
:10039000010E310807E18150100B01E0010E310818
:1003A00001E141DF8150040B01E0010E310807E15A
:1003B0008150100B01E0010E310801E11FDF815077
:1003C000010B310807E18150200B01E0010E3108DB
:1003D00001E1FFDE8150020B01E0010E310807E16F
:1003E0008150200B01E0010E310801E1DDDE81507A
:1003F000040B01E0010E310807E18150200B01E000
:10040000010E310801E1BBDE8150010B310807E12B
:100410008150400B01E0010E310801E19BDE81506B
:10042000020B01E0010E310807E18150400B01E0B1
:10043000010E310801E179DE8150040B01E0010E6B
:10044000310807E18150400B01E0010E310801E164
:1004500057DE8150010B310807E18150800B01E02C
:10046000010E310801E109DF8150020B01E0010EAC
:10047000310807E18150800B01E0010E310801E1F4
:1004800011DF8150040B01E0010E310807E18150BA
:10049000800B01E0010E310801E110DF6BD7120083
:1004A000060EF66E000EF76E000EF86E00010900E3
:1004B000F550656F0900F550666F03E1656701D07F
:1004C0003DD00900F550606F0900F550616F0900DB
:1004D000F550626F09000900F550E96E0900F5500A
:1004E000EA6E090009000900F550636F0900F55034
:1004F000646F09000900F6CF67F0F7CF68F0F8CF16
:1005000069F060C0F6FF61C0F7FF62C0F8FF00014C
:10051000635302E1645307E00900F550EE6E630790
:10052000F8E26407F9D767C0F6FF68C0F7FF69C053
:0E053000F8FF00016507000E665BBFD71200E2
:02053E00FF0EAE
:10054000E350036EEF0E01D0F30EE76EE72EA6EF39
:1005500002F00C0E026EE76AE72EACEF02F0022EFC
:0C056000ABEF02F0032EA4EF02F012003B
:04056C00FF0EE3504B
:10057000036E480E01D04C0EE76EE72EFED7E76AF9
:0C058000E72EFED7032EF7D70000120074
:04058C00000EF36EFC
:1005900000EE00F0080E01D81200EA6002D0EE6A08
:0C05A000FCD7F350E9601200EE6AFCD7B3
:0405AC0013EE00F05A
:1005B00023EE00F0F86A019C50EC02F0EFEC02F040
:0805C00073EC01F0FBD71200FF
:0805C800FF0EE350E84E1200A3
:0E05D000000000D000D000D0E82EFAD71200B4
:0205DE00120009
:020000040030CA
:010001000CF2
:0100020018E5
:010003001EDE
:0100050001F9
:010006008178
:00000001FF
