:020000040000FA
:06000000D2EF01F0120036
:020006000000F8
:08000800D9CFE6FFE1CFD9FFDB
:10001000FD0EDB5002E0848001D08490FE0EDB50A8
:10002000836E8482ADD88492ABD8E552E7CFD9FFF6
:100030001200D9CFE6FFE1CFD9FFFD0EDB0408E1C6
:10004000E66AFE0EDB50800FE66EDEDFE552E5521B
:10005000FD0EDB50020808E1E66AFE0EDB50C00F21
:10006000E66ED2DFE552E552E552E7CFD9FF120046
:100070008490010E836E848289D88492C6EF00F04A
:10008000D9CFE6FFE1CFD9FF070EE126330EDF6EB1
:10009000DE52320EDD6E380EF36E020EF3CFDBFF52
:1000A0000C0EF36E030EF3CFDBFF060EF36E040EA1
:1000B000F3CFDBFF010EF36E050EF3CFDBFF0F0E68
:1000C000C16E9690969201D095688490060EDB6A78
:1000D000F36EDBCFF4FFF350F45C15E2D9CF02F0FE
:1000E000DACF03F0060EDB500F010224E96E000E9A
:1000F0000320EA6EEF50836E848248D8849246D8FB
:10010000060EDB2AE5D7070EE15C02E2E16AE55262
:10011000E16EE552E7CFD9FF1200D9CFE6FFE1CF7C
:10012000D9FF010EE66EFE0EDBCFE6FF6DDFE55276
:10013000E552E552E7CFD9FF1200D9CFE6FFE1CF74
:10014000D9FFFD0EDBCFE9FFFE0EDBCFEAFFEF505C
:1001500013E0010EE66EFD0EDBCFE9FFFE0EDBCFF6
:10016000EAFFEF50E66E50DFE552E552FD0EDB2A66
:10017000FE0E01E3DB2AE5D7E552E7CFD9FF1200F7
:10018000020EE66EE0EC01F0E5521200010EE66EA2
:10019000BBEC01F0E55212009390939293949388F4
:1001A000938A938C938EF5EF01F0D9CFE6FFE1CFE0
:1001B000D9FFE652DF6A819081828184818681B88D
:1001C00003D0310EDF6E0ED081BA03D0340EDF6E55
:1001D00009D081BC03D0370EDF6E04D081BE02D0BF
:1001E0002A0EDF6E818081928184818681B803D05E
:1001F000320EDF6E0ED081BA03D0350EDF6E09D01D
:1002000081BC03D0380EDF6E04D081BE02D0300E28
:10021000DF6E818081828194818681B803D0330E24
:10022000DF6E0ED081BA03D0360EDF6E09D081BCEE
:1002300003D0390EDF6E04D081BE02D0230EDF6EF4
:10024000DF5000D0E552E552E7CFD9FF1200D9CFF9
:10025000E6FFE1CFD9FF080EE126D9CFE9FFDACFDB
:10026000EAFF530EEE6E450EEE6E4E0EEE6E480E2B
:10027000EE6E410EEE6EEE6A8C6A956A01DF8CDFDF
:10028000010EE66E060EE66ED4DEE552E552D9CFDB
:10029000E6FFDACFE6FF51DFE552E55286DFE76E93
:1002A000060EE7CFDBFFDB500CE0020EE66E080E19
:1002B000E66EBFDEE552E552060EDBCFE6FF2DDF30
:1002C000E552ECD7080EE15C02E2E16AE552E16E2C
:0802D000E552E7CFD9FF12004F
:0802D800060EF66E000EF76E33
:1002E000000EF86E00010900F550656F0900F55029
:1002F000666F03E1656701D03DD00900F550606F7E
:100300000900F550616F0900F550626F090009009E
:10031000F550E96E0900F550EA6E09000900090080
:10032000F550636F0900F550646F09000900F6CFBE
:1003300067F0F7CF68F0F8CF69F060C0F6FF61C0F2
:10034000F7FF62C0F8FF0001635302E1645307E066
:100350000900F550EE6E6307F8E26407F9D767C04D
:10036000F6FF68C0F7FF69C0F8FF00016507000EDF
:06037000665BBFD712001E
:0A037600FF0EE350056EEF0E01D0FC
:10038000F30EE76EE72EC2EF01F00C0E046EE76A83
:10039000E72EC8EF01F0042EC7EF01F0052EC0EFE5
:0403A00001F0120056
:0C03A40013EE00F023EE00F0F86A019C5C
:1003B0006CEC01F0F7EC01F027EC01F0FBD7120038
:1003C000FF0EE350056E1B0E00D001D0200EE76E2D
:0C03D000E72EFED7052EFAD700D0120051
:0403DC0000EE00F03F
:0A03E0000F0EEE6AEA62FDD712006C
:0403EA00F19E12006E
:0203EE001200FB
:020000040030CA
:010001000CF2
:010002001FDE
:010003001EDE
:0100050001F9
:010006008178
:00000001FF
