:020000040000FA
:06000000C4EF00F0120045
:020006000000F8
:08000800060EF66E000EF76E05
:10001000000EF86E00010900F550656F0900F550FB
:10002000666F03E1656701D03DD00900F550606F50
:100030000900F550616F0900F550626F0900090071
:10004000F550E96E0900F550EA6E09000900090053
:10005000F550636F0900F550646F09000900F6CF91
:1000600067F0F7CF68F0F8CF69F060C0F6FF61C0C5
:10007000F7FF62C0F8FF0001635302E1645307E039
:100080000900F550EE6E6307F8E26407F9D767C020
:10009000F6FF68C0F7FF69C0F8FF00016507000EB2
:0600A000665BBFD71200F1
:0A00A60083868388839A8390838207
:1000B0008384120083868398838A839083828384D7
:1000C000120083968388838A8380838283941200BC
:1000D00083968388838A83808392838412008396A5
:1000E0008388838A8390838283841200956ADBDF0E
:1000F000F40EE66E9DEC00F0E552DCDFC80EE66E15
:100100009DEC00F0E552EBDF640EE66E9DEC00F036
:10011000E552D7DF900EE66E9DEC00F0E552D8DF99
:10012000C80EE66E9DEC00F0E552D9DF640EE66E77
:0A0130009DEC00F0E552DBD7120051
:06013A00FF0EE350036E0E
:10014000EF0E01D0F30EE76EE72EA4EF00F00C0ED9
:10015000026EE76AE72EAAEF00F0022EA9EF00F088
:08016000032EA2EF00F01200D3
:08016800000EF36E00EE00F042
:10017000080E01D81200EA6002D0EE6AFCD7F350F4
:08018000E9601200EE6AFCD7F1
:0801880013EE00F023EE00F07D
:10019000F86A019C04EC00F0D2EC00F076EC00F080
:0401A000FBD7120077
:0201A400120047
:020000040030CA
:0100000000FF
:010001000CF2
:010002000EEF
:010003001EDE
:010005008179
:010006008178
:00000001FF
